{
  "contractName": "dBank",
  "abi": [
    {
      "inputs": [
        {
          "internalType": "contract aliToken",
          "name": "_token",
          "type": "address"
        }
      ],
      "stateMutability": "nonpayable",
      "type": "constructor"
    },
    {
      "inputs": [
        {
          "internalType": "address",
          "name": "",
          "type": "address"
        }
      ],
      "name": "etherBalanceOf",
      "outputs": [
        {
          "internalType": "uint256",
          "name": "",
          "type": "uint256"
        }
      ],
      "stateMutability": "view",
      "type": "function"
    },
    {
      "inputs": [],
      "name": "deposit",
      "outputs": [],
      "stateMutability": "payable",
      "type": "function"
    },
    {
      "inputs": [],
      "name": "withdraw",
      "outputs": [],
      "stateMutability": "nonpayable",
      "type": "function"
    },
    {
      "inputs": [],
      "name": "borrow",
      "outputs": [],
      "stateMutability": "payable",
      "type": "function"
    },
    {
      "inputs": [],
      "name": "payOff",
      "outputs": [],
      "stateMutability": "nonpayable",
      "type": "function"
    }
  ],
  "bytecode": "0x608060405234801561001057600080fd5b506040516102653803806102658339818101604052602081101561003357600080fd5b8101908080519060200190929190505050806000806101000a81548173ffffffffffffffffffffffffffffffffffffffff021916908373ffffffffffffffffffffffffffffffffffffffff160217905550506101d1806100946000396000f3fe60806040526004361061004a5760003560e01c8063179fc99f1461004f5780633ccfd60b146100b45780633fac68d5146100cb578063d0e30db0146100e2578063e68d3569146100ec575b600080fd5b34801561005b57600080fd5b5061009e6004803603602081101561007257600080fd5b81019080803573ffffffffffffffffffffffffffffffffffffffff1690602001909291905050506100f6565b6040518082815260200191505060405180910390f35b3480156100c057600080fd5b506100c961010e565b005b3480156100d757600080fd5b506100e0610110565b005b6100ea610112565b005b6100f4610199565b005b60016020528060005260406000206000915090505481565b565b565b34600160003373ffffffffffffffffffffffffffffffffffffffff1673ffffffffffffffffffffffffffffffffffffffff1681526020019081526020016000205401600160003373ffffffffffffffffffffffffffffffffffffffff1673ffffffffffffffffffffffffffffffffffffffff16815260200190815260200160002081905550565b56fea2646970667358221220b594650ffb4497d331ff1b57af64a0037079c61108ac21a87ab50eb9ab212c0764736f6c63430007060033",
  "immutableReferences": {},
  "source": "// SPDX-License-Identifier: MIT\r\npragma solidity >=0.6.0 <0.8.0;\r\n\r\nimport \"./aliToken.sol\";\r\n\r\ncontract dBank {\r\n    //assign Token contract to variable\r\n    aliToken private aToken;\r\n\r\n    //add mappings\r\n    mapping(address => uint256) public etherBalanceOf;\r\n\r\n    //add events\r\n\r\n    //pass as constructo r argument deployed Token contract\r\n    constructor(aliToken _token) public {\r\n        //assign token deployed contract to variable\r\n        aToken = _token;\r\n    }\r\n\r\n    function deposit() public payable {\r\n        //check if msg.sender didn't already deposited funds\r\n        //check if msg.value is >= than 0.01 ETH\r\n        \r\n        etherBalanceOf[msg.sender] = etherBalanceOf[msg.sender] + msg.value;\r\n\r\n        //increase msg.sender ether deposit balance\r\n        //start msg.sender hodling time\r\n        //set msg.sender deposit status to true\r\n        //emit Deposit event\r\n    }\r\n\r\n    function withdraw() public {\r\n        //check if msg.sender deposit status is true\r\n        //assign msg.sender ether deposit balance to variable for event\r\n        //check user's hodl time\r\n        //calc interest per second\r\n        //calc accrued interest\r\n        //send eth to user\r\n        //send interest in tokens to user\r\n        //reset depositer data\r\n        //emit event\r\n    }\r\n\r\n    function borrow() public payable {\r\n        //check if collateral is >= than 0.01 ETH\r\n        //check if user doesn't have active loan\r\n        //add msg.value to ether collateral\r\n        //calc tokens amount to mint, 50% of msg.value\r\n        //mint&send tokens to user\r\n        //activate borrower's loan status\r\n        //emit event\r\n    }\r\n\r\n    function payOff() public {\r\n        //check if loan is active\r\n        //transfer tokens from user back to the contract\r\n        //calc fee\r\n        //send user's collateral minus fee\r\n        //reset borrower's data\r\n        //emit event\r\n    }\r\n}\r\n",
  "sourcePath": "/Users/ali.yilmaz/Projects (GitHub)/ali-token/src/contracts/dBank.sol",
  "compiler": {
    "name": "solc",
    "version": "0.7.6+commit.7338295f.Emscripten.clang"
  },
  "schemaVersion": "3.4.1",
  "updatedAt": "2021-05-14T16:12:22.828Z",
  "devdoc": {
    "kind": "dev",
    "methods": {},
    "version": 1
  },
  "userdoc": {
    "kind": "user",
    "methods": {},
    "version": 1
  }
}